S0150000536569736F4D616368696E65322E7372656325
S11300000C9434000C943E000C943E000C943E007E
S11300100C943E000C943E000C943E000C943E0064
S11300200C943E000C943E000C943E000C943E0054
S11300300C943E000C943E000C943E000C943E0044
S11300400C943E000C943E000C943E000C943E0034
S11300500C943E000C943E000C943E000C943E0024
S11300600C943E000C943E0011241FBECFEFD8E048
S1130070DEBFCDBF0E9440000C944F000C940000E2
S11300808FEC84B98EE387B980EF8AB95F9A83EFE6
S113009084BD84E085BD8FEF87BD88BDFFCFF89414
S10500A0FFCF8C
S9030000FC
