S0150000536569736F4D616368696E65322E7372656325
S11300000C9434000C94EF000C94F9000C9446000A
S11300100C9446000C9446000C9446000C94730017
S11300200C9446000C9446000C9446000C94460034
S11300300C9446000C9446000C9446000C94460024
S11300400C9446000C9446000C9446000C94460014
S11300500C9446000C9446000C9446000C94460004
S11300600C9446000C94460011241FBECFEFD8E038
S1130070DEBFCDBF21E0A0E0B1E001C01D92A230FF
S1130080B207E1F70E9448000C9403010C940000AD
S11300908FEC84B98EE387B980EF8AB95F9A83EFD6
S11300A084BD84E085BD91EC9093800080938100B1
S11300B092E09093B0008FE08093B10088E2809347
S11300C0B3008FEF8093B4009093700095E0909309
S11300D0690093E09DBB17BC88BD10928900109203
S11300E088007894FFCF1F920F920FB60F921124BD
S11300F08F939F93EF93FF935F982F982E985C981C
S113010080910101813041F028F0823039F0833050
S113011039F007C05F9A05C02F9A03C02E9A01C018
S11301205C9A80910101833010F48F5F01C080E0FC
S11301308093010180910001811119C088B581501B
S113014088BDE8E8F0E08081918101969183808305
S113015088B581113BC017BC18BC8FEF90E0909319
S113016089008093880081E0809300012FC0813052
S1130170C9F4E8E8F0E0808191810197918380835C
S113018087B58F5F87BD80819181892BF9F48FEFCB
S113019087BD18BC109289001092880082E0809379
S11301A0000114C0823091F487B5815087BD88B5B1
S11301B08F5F88BD87B5811109C017BC8FEF88BDDB
S11301C0109289001092880010920001FF91EF9123
S11301D09F918F910F900FBE0F901F9018951F92B3
S11301E00F920FB60F9211240F900FBE0F901F9015
S11301F018951F920F920FB60F9211240F900FBEF5
S10D02000F901F901895F894FFCF9B
S9030000FC
