S0150000536569736F4D616368696E65322E7372656325
S11300000C9434000C9451000C9451000C94510045
S11300100C9451000C9451000C9451000C94A001C8
S11300200C9451000C9451000C9451000C94510008
S11300300C9451000C9451000C9451000C945100F8
S11300400C9451000C9451000C9451000C945100E8
S11300500C9451000C9451000C9451000C945100D8
S11300600C9451000C94510011241FBECFEFD8E022
S1130070DEBFCDBF11E0A0E0B1E0E2EDF4E002C0EC
S113008005900D92AC30B107D9F721E0ACE0B1E0B6
S113009001C01D92A231B207E1F70E94DE000C9468
S11300A067020C940000CF93DF93CDB7DEB72A9795
S11300B00FB6F894DEBF0FBECDBF9AE0E2E0F1E0E8
S11300C0DE01119601900D929A95E1F798B1E1E065
S11300D0F0E0EC0FFD1FE80FF11D80818E73917C21
S11300E0982B98B985B19081827F392F331F33279C
S11300F0331F282F232B9074892F90E09595879593
S1130100959587959595879595958795822B60FF0D
S113011002C090E001C098E0892B85B92A960FB6F9
S1130120F894DEBF0FBECDBFDF91CF910895AC012F
S113013090930101809300019C0136952795369593
S1130140279536952795A5ECB0E20E945802929522
S113015082958F7089279F708927EEE0F1E0808374
S113016068E17CEF869F9001879F300D1124420F38
S1130170531F9A013695279536952795ABE7B4E139
S11301800E94580296958795818324E6829F4019A0
S1130190510911249A01ADECBCEC0E9458029695C9
S11301A0879596958795969587958283880F982F3E
S11301B0990F990F890F481B438308958FEC84B9D5
S11301C08EE387B980EF8AB98BB18C688BB983EFE2
S11301D084BD84E085BD91EC909380008093810080
S11301E092E09093B0008FE08093B1008EE1809311
S11301F0B3008FEF8093B400909370009AE09093D3
S113020069001DBA17BC88BD10928900109288003D
S113021080910001909101010E949700789490E0F0
S1130220C1E00F2EF3E0DF2EF02DD4E010E068944F
S1130230FF24F1F80F2EF6E0EF2EF02D05E001C0BB
S1130240912F89B18C70883019F4911101C09C2FC1
S113025089B18C7019F4913009F463C089B18C7040
S1130260843019F4923009F451C089B18C708C3007
S1130270D9F49330C9F48091000190910101019661
S113028090930101809300010E94970080910001E6
S1130290909101018031974230F081E090E00E941A
S11302A09700912F01C0912F89B18C70843019F47B
S11302B0911101C09D2F89B18C7011F49430D1F14A
S11302C089B18C70883011F4953029F189B18C7022
S11302D08C3009F0B6CF963009F0B3CF809100018D
S11302E090910101019790930101809300010E9474
S11302F097008091000190910101892B09F0A0CF12
S11303008FE097E20E949700912F9BCF89B18C7068
S11303108C3069F4B0CF89B18C708C30F9F29E2D99
S113032090CF89B18C70843089F39F2D9ECF89B191
S11303309D2DC1CF89B18C70883069F3902FC6CFC1
S11303401F920F920FB60F9211242F933F934F9346
S11303505F936F937F938F939F93AF93BF93EF9329
S1130360FF935F982F982E985C9880910D018130AF
S113037099F028F08230E9F0833041F133C088B13C
S11303808E6388B985B18D6085B95F9A60E080918C
S11303900E010E94530026C088B18E6388B985B1CE
S11303A08D6085B92F9A60E080910F010E945300FF
S11303B019C088B18E6388B985B18D6085B92E9ACC
S11303C060E0809110010E9453000CC088B18E63DC
S11303D088B985B18D6085B95C9A60E0809111011E
S11303E00E94530080910D01833010F48F5F01C08F
S11303F080E080930D0180910C01811119C088B5B2
S1130400815088BDE8E8F0E0808191810196918374
S1130410808388B581113BC017BC18BC8FEF90E076
S1130420909389008093880081E080930C012FC011
S11304308130C9F4E8E8F0E08081918101979183EB
S1130440808387B58F5F87BD80819181892BF9F483
S11304508FEF87BD18BC109289001092880082E04B
S113046080930C0114C0823091F487B5815087BD0C
S113047088B58F5F88BD87B5811109C017BC8FEF20
S113048088BD109289001092880010920C01FF918F
S1130490EF91BF91AF919F918F917F916F915F91F8
S11304A04F913F912F910F900FBE0F901F90189571
S11304B0A29FB001B39FC001A39F700D811D1124A1
S11304C0911DB29F700D811D1124911D0895F89402
S10504D0FFCF58
S10F04D2F40181F34961332505B10121D7
S9030000FC
