S0150000536569736F4D616368696E65322E7372656325
S11300000C9434000C9446000C9446000C94460066
S11300100C9446000C9446000C9446000C946C001E
S11300200C9446000C9446000C9446000C94460034
S11300300C9446000C9446000C9446000C94460024
S11300400C9446000C9446000C9446000C94460014
S11300500C9446000C9446000C9446000C94460004
S11300600C9446000C94460011241FBECFEFD8E038
S1130070DEBFCDBF21E0A0E0B1E001C01D92A13000
S1130080B207E1F70E9448000C9497000C9400001A
S11300908FEC84B98EE387B980EF8AB95F9A83EFD6
S11300A084BD84E085BD17BC9FEF98BD91EC90930F
S11300B0800080938100109289001092880082E071
S11300C08093B0009FE09093B10098E29093B300C6
S11300D0809370007894FFCF1F920F920FB60F9207
S11300E011248F935F982F982E985C98809100012B
S11300F0813041F028F0823039F0833039F007C084
S11301005F9A05C02F9A03C02E9A01C05C9A809111
S113011000018F5F843018F48093000102C01092B4
S113012000018F910F900FBE0F901F901895F894B7
S1050130FFCFFB
S9030000FC
