S0150000536569736F4D616368696E65322E7372656325
S11300000C9434000C9454010C945E010C94510033
S11300100C9451000C9451000C9451000C94D80091
S11300200C9451000C9451000C9451000C94510008
S11300300C9451000C9451000C9451000C945100F8
S11300400C9451000C9451000C9451000C945100E8
S11300500C9451000C9451000C9451000C945100D8
S11300600C9451000C94510011241FBECFEFD8E022
S1130070DEBFCDBF11E0A0E0B1E0E4EDF2E002C0EC
S113008005900D92AA30B107D9F721E0AAE0B1E0BA
S113009001C01D92AC30B207E1F70E949A000C94A3
S11300A068010C940000CF93DF93CDB7DEB72A9795
S11300B00FB6F894DEBF0FBECDBF9AE0E0E0F1E0EA
S11300C0DE01119601900D929A95E1F798B1E1E065
S11300D0F0E0EC0FFD1FE80FF11D80818E73917C21
S11300E0982B98B985B19081262F217030E0220F8A
S11300F0331F220F331F220F331F827F282B892F98
S1130100881F8827881F282B9074892F90E0959545
S11301108795959587959595879595958795822B40
S113012085B92A960FB6F894DEBF0FBECDBFDF9116
S1130130CF9108958FEC84B98EE387B980EF8AB9A3
S11301405F9A83EF84BD84E085BD91EC9093800039
S11301508093810092E09093B0008FE08093B1008F
S113016088E28093B3008FEF8093B4009093700083
S113017095E09093690093E09DBB17BC88BD1092F5
S11301808900109288007894C0E02FEF89E698E106
S1130190215080409040E1F700C00000C93010F4C5
S11301A0CF5F01C0C0E061E08C2F0E945300EDCF0F
S11301B01F920F920FB60F9211248F939F93EF9378
S11301C0FF935F982F982E985C9880910B01813053
S11301D041F028F0823039F0833039F007C05F9A5B
S11301E005C02F9A03C02E9A01C05C9A80910B011E
S11301F0833010F48F5F01C080E080930B01809105
S11302000A01811119C088B5815088BDE8E8F0E081
S11302108081918101969183808388B581113BC04F
S113022017BC18BC8FEF90E09093890080938800EE
S113023081E080930A012FC08130C9F4E8E8F0E03E
S11302408081918101979183808387B58F5F87BD7A
S113025080819181892BF9F48FEF87BD18BC1092AE
S113026089001092880082E080930A0114C08230D1
S113027091F487B5815087BD88B58F5F88BD87B5F8
S1130280811109C017BC8FEF88BD109289001092AC
S1130290880010920A01FF91EF919F918F910F9026
S11302A00FBE0F901F9018951F920F920FB60F92CA
S11302B011240F900FBE0F901F9018951F920F924C
S11302C00FB60F9211240F900FBE0F901F90189528
S10702D0F894FFCFCC
S10D02D481F34961332505B10121CE
S9030000FC
