:100000000C9434000C943E000C943E000C943E0082
:100010000C943E000C943E000C943E000C943E0068
:100020000C943E000C943E000C943E000C943E0058
:100030000C943E000C943E000C943E000C943E0048
:100040000C943E000C943E000C943E000C943E0038
:100050000C943E000C943E000C943E000C943E0028
:100060000C943E000C943E0011241FBECFEFD8E04C
:10007000DEBFCDBF0E9440000C9458000C940000DD
:100080008FEC84B98EE387B980EF8AB95F9A83EFEA
:1000900084BD84E085BD17BC9FEF98BD91EC909323
:1000A0008000809381001092890010928800FFCF19
:0400B000F894FFCFF2
:00000001FF
