:100000000C9434000C9451000C9451000C94510049
:100010000C9451000C9451000C9451000C94DE008F
:100020000C9451000C9451000C9451000C9451000C
:100030000C9451000C9451000C9451000C945100FC
:100040000C9451000C9451000C9451000C945100EC
:100050000C9451000C9451000C9451000C945100DC
:100060000C9451000C94510011241FBECFEFD8E026
:10007000DEBFCDBF11E0A0E0B1E0E8E3F5E002C0F3
:1000800005900D92A431B107D9F721E0A4E1B1E0C8
:1000900001C01D92AA31B207E1F70E94BA010C9487
:1000A0009A020C940000CF93DF93CDB7DEB72A9766
:1000B0000FB6F894DEBF0FBECDBF9AE0EAE0F1E0E4
:1000C000DE01119601900D929A95E1F798B1E1E069
:1000D000F0E0EC0FFD1FE80FF11D80818E73917C25
:1000E000982B98B985B19081827F392F331F3327A0
:1000F000331F282F232B9074892F90E09595879597
:10010000959587959595879595958795822B60FF11
:1001100002C090E001C098E0892B85B92A960FB6FD
:10012000F894DEBF0FBECDBFDF91CF910895AC0133
:1001300090930101809300019C0136952795369597
:10014000279536952795A5ECB0E20E948B029295F3
:1001500082958F7089279F708927E6E1F1E080837F
:1001600068E17CEF869F9001879F300D1124420F3C
:10017000531F9A013695279536952795ABE7B4E13D
:100180000E948B0296958795818324E6829F401971
:10019000510911249A01ADECBCEC0E948B0296959A
:1001A000879596958795969587958283880F982F42
:1001B000990F990F890F481B438308951F920F923F
:1001C0000FB60F9211242F933F934F935F936F932A
:1001D0007F938F939F93AF93BF93EF93FF935F981A
:1001E0002F982E985C9880911501813099F028F015
:1001F0008230E9F0833041F133C088B18E6388B931
:1002000085B18D6085B95F9A60E0809116010E948A
:10021000530026C088B18E6388B985B18D6085B9D9
:100220002F9A60E0809117010E94530019C088B195
:100230008E6388B985B18D6085B92E9A60E0809112
:1002400018010E9453000CC088B18E6388B985B133
:100250008D6085B95C9A60E0809119010E9453001D
:1002600080911501833010F48F5F01C080E080938E
:10027000150180911401811119C088B5815088BD84
:10028000E8E8F0E08081918101969183808388B5D0
:1002900081113BC017BC18BC8FEF90E09093890090
:1002A0008093880081E0809314012FC08130C9F4CD
:1002B000E8E8F0E08081918101979183808387B5A0
:1002C0008F5F87BD80819181892BF9F48FEF87BD86
:1002D00018BC109289001092880082E0809314016B
:1002E00014C0823091F487B5815087BD88B58F5F87
:1002F00088BD87B5811109C017BC8FEF88BD1092EA
:1003000089001092880010921401FF91EF91BF9123
:10031000AF919F918F917F916F915F914F913F919D
:100320002F910F900FBE0F901F901895CF93DF93D2
:10033000DC01662399F06150262F30E02F5F3F4F9C
:10034000280F391FE0ECF0E0C6ECD0E0908195FF7B
:10035000FDCF8D918883A217B307C1F7DF91CF91AD
:100360000895E2E0F1E09583868368E0CF010E9482
:10037000960108958FEC84B98EE387B980EF8AB92E
:100380008BB18C688BB983EF84BD84E085BD91EC23
:10039000909380008093810092E09093B0008FE072
:1003A0008093B1008EE18093B3008FEF8093B4000F
:1003B0009093700017BC88BD10928900109288003D
:1003C0001092C50083E38093C4001092C00088E1BE
:1003D0008093C10086E08093C200809100019091DB
:1003E00001010E9497007894C0E0D1E00F2EF3E065
:1003F000CF2EF02D14E0E12C6894FF24F1F80F2E9D
:10040000F6E0DF2EF02D05E089B18C70883019F40C
:10041000C11101C0CD2F89B18C7019F4C13009F41C
:100420006BC089B18C70843019F4C23009F459C0A2
:1004300089B18C708C30D9F4C330C9F4809100013B
:1004400090910101019690930101809300010E9417
:10045000970080910001909101018031974230F026
:1004600081E090E00E949700CE2D01C0CE2D89B191
:100470008C70843019F4C11101C0C12F89B18C7006
:1004800019F4C43009F441C089B18C70883011F47A
:10049000C53061F189B18C708C30D1F4C630C1F4B3
:1004A0008091000190910101019790930101809347
:1004B00000010E9497008091000190910101892B19
:1004C00031F48FE097E20E949700CE2D01C0CE2D2F
:1004D000309B9ACF80910001909101010E94B1015F
:1004E00093CF89B18C708C3069F4A8CF89B18C70AE
:1004F0008C30B1F2CD2DECCF89B18C70843089F382
:10050000CF2D96CF89B1CC2DB9CF89B18C708830E1
:1005100069F3C02FBFCFA29FB001B39FC001A39FBB
:10052000700D811D1124911DB29F700D811D11242C
:08053000911D0895F894FFCF1E
:1005380001007EFF0603000001EF81F349613325C6
:0405480005B10121D7
:00000001FF
